:020000040800F2
:10000000F809002075500008AD060008AF0600088A
:10001000B1060008B3060008B5060008000000009D
:10002000000000000000000000000000B70600080B
:10003000B906000800000000BB060008BD06000865
:100040008F5000088F5000088F5000088F50000814
:100050008F5000088F5000088F5000088F50000804
:100060008F5000088F5000088F5000088F500008F4
:100070008F5000088F5000088F5000088F500008E4
:100080008F5000088F5000088F5000088F500008D4
:100090008F5000088F5000088F5000088F500008C4
:1000A0008F5000088F5000088F5000088F500008B4
:1000B0008F5000088F5000080F6F00088F50000805
:1000C0008F5000088F5000088F5000088F50000894
:1000D0008F5000080D5000088F5000088F50000806
:1000E0008F5000088F5000088F5000088F50000874
:1000F0008F5000088F5000088F5000088F50000864
:100100008F5000088F5000088F5000088F50000853
:100110008F5000088F5000088F5000088F50000843
:100120008F5000088F5000088F5000088F50000833
:1001300000F002F800F076F80AA090E8000C824483
:100140008344AAF10107DA4501D100F06BF8AFF260
:10015000090EBAE80F0013F0010F18BFFB1A43F0A5
:100160000103184774C4000094C400000A444FF00F
:10017000000C10F8013B13F0070408BF10F8014B06
:100180001D1108BF10F8015B641E05D010F8016B4B
:10019000641E01F8016BF9D113F0080F1EBF10F8AF
:1001A000014BAD1C0C1B09D16D1E58BF01F801CBD2
:1001B000FAD505E014F8016B01F8016B6D1EF9D555
:1001C0009142D6D37047000000230024002500266A
:1001D000103A28BF78C1FBD8520728BF30C148BFAA
:1001E0000B60704766290AF0FE82642907F09E833F
:1001F000752907F09B83782907F0D483632907F0DA
:100200005E87732907F06387002070471FB507F0EA
:1002100075FF04000020002109F0B4F9E0601FBD63
:1002200010B510BD08F06EF81146FFF7EFFF00F0B3
:1002300009F808F08CF803B4FFF7F2FF03BC04F0F0
:100240008FFE00001CB504F03FFE4FF4A06004F0E8
:1002500031FF4FF4165004F08DFED748D74900689F
:10026000B0FBF1F0D649C0B24968884701F002F806
:1002700000F0D2FAD34F4FF4784018243880D2A03F
:10028000CDE90040234682222821052004F01DF9F3
:10029000D0A0CDE90040182382224621052004F099
:1002A00014F9CFA0CDE90040182382226421052053
:1002B00004F00BF9CDA0CDE9004018233C22962193
:1002C000142004F002F9CAA0CDE9004018233C2212
:1002D000B421142004F0F9F8C6A0CDE90040182399
:1002E0003C22D221142004F0F0F8C3A0CDE9004054
:1002F000182314229621DC2004F0E7F8BFA0CDE9F2
:10030000004018231422B421DC2004F0DEF8BCA045
:10031000CDE9004018231422D221DC2004F0D5F8C6
:10032000B8A0CDE9004018233C22F021142004F0AD
:10033000CCF8B5A0CDE9004018233C2240F20911C9
:10034000142004F0C2F8B1A0CDE9004018233C22EB
:1003500040F22711142004F0B8F804F0DFF8FA2175
:10036000EA2004F028FA322004F0DCFDE521EA203E
:1003700004F021FA322004F0D5FD04F03EFBDFF852
:1003800090B2DFF89092A44DDFF890A24FF01F08D2
:10039000002000F065FA1021584605F0CEF900283B
:1003A00052D199F800004E4600284DD1A7F80080A0
:1003B0009BA0CDE90040182382220A21322004F0BC
:1003C00084F8322004F0AEFD04F00BFC994800687C
:1003D00009F008FF02460B4697A18F4807F042FA42
:1003E00018237822F0216420CDE9004504F06DF84F
:1003F0009448006809F0F6FE02460B468EA1864836
:1004000007F030FA1823C82240F209113C20CDE948
:10041000004504F05AF88C48006809F0E3FE0246F3
:100420000B4685A17C4807F01DFA1823782240F27C
:1004300027116420CDE9004504F047F84FF47A70A5
:1004400004F070FD012030701021584605F075F958
:1004500000284DD199F800004E46012848D1A7F850
:1004600000807AA0CDE90040182382220A213220A0
:1004700004F02BF80020307004F016FC7A48006875
:1004800009F0B0FE02460B4678A1634807F0EAF98E
:100490001823782296216420CDE9004504F015F850
:1004A000DAF8000009F09EFE02460B4672A15A4897
:1004B00007F0D8F918237822B4216420CDE900454B
:1004C00004F003F86F48006809F08CFE02460B4602
:1004D00066A1514807F0C6F918237822D22164207A
:1004E000CDE9004503F0F1FF4FF47A7004F01AFDF6
:1004F000A7F8008064A0CDE90040182382220A21D9
:10050000322003F0E2FF7F2004F031F8302004F0C5
:100510002EF809F0DFFF604E3060322004F027F83B
:1005200009F0D8FF5D49086009F05CFE02460B4601
:100530004EA1394807F096F91823822228218C20F1
:10054000CDE9004503F0C1FF306809F04BFE0246DB
:100550000B4646A1304807F085F918238222462130
:100560008C20CDE9004503F0B0FF4D48006809F04C
:1005700039FE02460B463DA1274807F073F91823C0
:10058000822264218C20CDE9004503F09EFF04F017
:100590008BFBDAF8000009F025FE02460B4641A16C
:1005A0001D4807F05FF918237822B4216420CDE9B3
:1005B000004503F08AFFEBE60400002040420F00F4
:1005C000400100201A00002055726D732832344813
:1005D00029203A004961726D7328323248293A0065
:1005E000506F77412832364829203A0055203A008A
:1005F00049413A0050413A005600000041000000D5
:10060000570000004B753A004B693A004B703A00B6
:10061000001801400000002044020020500000208B
:100620002020436F756E745F4B782020202020209F
:10063000202020006C000020256620202020202083
:100640002000000064000020700000202020506F77
:10065000776572456E65726779436F756E74202099
:1006600020202020202020004C0000202578202061
:10067000202020202000000025782020202020207D
:10068000000000005400002070726573656E7420D5
:1006900076616C75650000002C000020340000209D
:1006A0003800002025662020202020007047FEE72B
:1006B000FEE7FEE7FEE770477047704770470000AF
:1006C0000CB500224C4800920192016841F480313F
:1006D00001604FF4A063016801F4003101910099B9
:1006E000491C0091019911B900999942F3D101680F
:1006F000890333D50121019140490A6842F0100273
:100700000A600A6822F003020A600A6842F00202E4
:100710000A604168416041684160416841F480611C
:100720004160416821F47C114160416841F4E81165
:100730004160016841F08071016001688901FCD568
:10074000416821F003014160416841F002014160CC
:100750004168C1F381010229FAD10CBD01920CBD9F
:10076000254810B5016841F0010101604168244A43
:10077000114041600168234A11400160016821F481
:1007800080210160416821F4FE0141604FF41F01A6
:100790008160FFF795FF1C494FF00060086010BDB5
:1007A000154A10B55068194B10F00C01184803D0C9
:1007B000042901D0082901D0036012E05168536870
:1007C00001F470114FF0020413F4803F04EB9141E7
:1007D00002D053689B0301D50E4B00E00B4B5943ED
:1007E000016051680A4AC1F30311121D515C02688D
:1007F000CA40026010BD000000100240002002400C
:100800000000FFF8FFFFF6FE08ED00E000127A009E
:100810000400002000093D0038B50121442005F006
:100820001EF91C20ADF800003D4D48248DF8034012
:100830006946284604F02BFF0121ADF800108DF821
:1008400003406946374804F022FF0820ADF8000055
:1008500028208DF803006946284604F018FF38BDAB
:100860002DE9F041304C2F4F2D4D012608B1267057
:1008700001E02078A0B11021284604F05EFFB0B15D
:100880000121384604F059FF88B10421284604F0BC
:1008900054FF60B10821284604F04FFF012806D01C
:1008A0001021284604F049FF012824D035E00A2011
:1008B00004F038FB002020701021284604F03DFF92
:1008C00080B10121384604F038FF70B10421284678
:1008D00004F033FF58B10821284604F02EFF012808
:1008E00007D01AE00120BDE8F0810220FBE70320D9
:1008F000F9E70420F7E70121384604F01EFF01283C
:100900000BD10421284604F018FF012805D1082145
:10091000284604F012FF00B926700020E3E700002B
:10092000001801400008014018000020FE4908801E
:100930007047FD49891C08807047FB4808B5801C3A
:100940000088ADF80000BDF8000008BDF64A108030
:10095000901C01807047F44910B50880052004F010
:10096000CAFABDE81040E8E7F048EF49008908807E
:100970007047ED49891C08807047C0F34511C20AD1
:10098000C00200EB4110104480B27047401EC0B25C
:10099000FCD270472DE9F04FE44F0B463A46BD8834
:1009A0000C0ADFF884B391895289A5F513464FEA02
:1009B000102C0BF1020A413E1DD0A5F5A646103EB3
:1009C00019D03E46BE4696F806903688A5F5D04723
:1009D000A6EB0008A8F10108043F17D0A5F5C857F9
:1009E000633F28D0A5F5AA477646103F51D0B9F10C
:1009F000010F63D064E0ABF800205246AAF800C0B3
:100A0000C0B2AAF80000ABF800100FE0B9F1010F76
:100A100001D11FFA88F0ABF80020050A5246AAF867
:100A20000050C0B2AAF80000ABF800101480D8B291
:100A30001080BDE8F08FB9F1000F1BD0ABF800209B
:100A40005246AAF800C0C0B2AAF80000761E300ACA
:100A5000AAF80000F0B21080ABF800101146148024
:100A6000D8B21080BEF80200401E020A0A80C0B24E
:100A70000880DEE71FFA88F0ABF800200026524617
:100A8000AAF80060AAF80060060AAAF80060C0B2DE
:100A9000E1E7ABF80020AAF800C0521CABF8002038
:100AA000C0B2AAF80000ABF80010AAF80040491C38
:100AB000ABF80010D8B2AAF80000BAE71FFA88F025
:100AC00001461046FFF742FFB089BDE8F04F1946D6
:100AD0003CE7F0B5954E002425463288824202D983
:100AE00072888A4201D80020F0BDFFF753FFB0881A
:100AF00049F241378C4B41F6631C45F2103145F207
:100B00001052B84208D0A0F5D04EBEF1040E03D06A
:100B1000884201D0604502D14FF02E0E06E090428F
:100B200002D14FF4385E01E04FF0220EA3F800E04E
:100B3000A0F51343203B03D10220401EC0B2FCD2DB
:100B4000FFF7FBFEB3886345CED00220401EC0B243
:100B5000FCD2FFF7F2FE8446B088B84203D0884248
:100B600001D090420CD10220401EC0B2FCD2FFF74F
:100B7000E4FE05460CF0FF004FF6FF7303EA002485
:100B8000B088A0F51343253B1FD0A0F58A43353B21
:100B90001BD0A0F58A43313B17D0A0F53543053B68
:100BA00013D0A0F54543053B0FD0B84203D088428F
:100BB00001D090420BD14FEADC204FEAC020A10ABD
:100BC00040EA411040EAD520F0BD6046F0BDBDE8E6
:100BD000F0406046D1E6554853498088A0F513425D
:100BE000413A13D0A0F5D042043A0FD0A0F5A64266
:100BF000103A0BD0A0F5C852633A07D0A0F5AA422C
:100C0000103A05D040F2731107209FE6292001E039
:100C10004FF4245008807047444843498088A0F529
:100C20001342413A12D0A0F5D042043A0ED0A0F5BA
:100C3000A642103A0AD0A0F5C852633A06D0A0F5F1
:100C4000AA42103A04D0002107207FE6282001E0C4
:100C50004FF4205008807047F0B5344D00232946EA
:100C6000AA79898846F6040741F66316012A01D05D
:100C70002AB11DE0B9421BD0B14202D118E0B14205
:100C800016D1082814D2DFE800F00406080A0C0E7A
:100C9000101206200CE007200AE0042008E00520DE
:100CA00006E0012004E0002002E0032000E0022032
:100CB000A1F5134C45F2103245F21054BCF1410C31
:100CC00007D0B94205D0914203D0A14201D0B14230
:100CD0007AD1082812D2DFE800F0110406080A0CC5
:100CE0000E1080230AE0402308E0C02306E0202302
:100CF00004E0602302E0A02300E0E023A14202D14F
:100D00004FF4585000E03620914205D0A14203D064
:100D1000B14201D043F00803B94201D143F00203CC
:100D20001946FFF713FE03E0FE07006C7602002071
:100D3000AA88B2420AD098062888698802D58842D3
:100D400002D303E0884201D929806880FE48811CD3
:100D5000A2426A89028021D100230B80531C0380A8
:100D600000230B80931C03802B885B1E1C0A0C80C5
:100D7000D21C0280DAB20A80AA89028000230B808A
:100D8000531C038000230B80931C03806B885B1E25
:100D90001C0A0C80D21C0280D8B212E000220A8009
:100DA0000A802A88521E130A0B80D2B20A80AA89AE
:100DB00002800020088008806888401E020A0A809D
:100DC000C0B20880F0BDFFE7082812D2DFE800F0CB
:100DD000040608110A0C0E1030230AE0102308E064
:100DE000202306E0382304E0282302E0182300E053
:100DF0000823BDE8F040032043F48051A6E500B588
:100E0000FFF7C8FDFFF7B0FDD048CF49891C008827
:100E1000088000BD2DE9F04FDFF834839346424649
:100E20000B46B8F804500C0ADFF81CA39189060A97
:100E30005289A5F513470AF10209413F19D0A5F5DA
:100E4000A647103F15D0A5F5AA47103F1CD047462E
:100E5000A5F5C85CBE793F883F1A7F1EBCF1630CC4
:100E600027D0A5F5D04CBCF1040C3AD0012E4AD0C5
:100E70004AE0AAF800204A46A9F80060C0B2A9F8E2
:100E80000000AAF800103AE0AAF80020A9F80060D3
:100E9000521CAAF80020C0B2A9F80000AAF800105D
:100EA000A9F80040491CAAF80010D8B2A9F800001F
:100EB00033E006B9B8B2AAF80020050A4A46A9F8F4
:100EC0000050C7B2A9F80070A9F80050C0B2A9F844
:100ED0000000AAF80010A9F80040D8B2A9F8000054
:100EE0000DE0012E00D1B8B2AAF80020050A4A464A
:100EF000A9F80050C0B2A9F80000AAF800101480A8
:100F0000D8B2108009E0B8B201461046FFF71EFDC6
:100F1000B8F80C001946FFF719FDB8F80810AAF840
:100F20000010A9F800B084E5874A10B5BE211180F1
:100F3000941C0521218008F0F5FD4FF06632854BA9
:100F400008F040FE08F0AAFD208001202080FF204C
:100F5000208000202080208010BD2DE9F04F7C49AA
:100F60002A232B24898845F2105A4FF4305B4FF422
:100F7000285E4FF448754FF0F00C49F241394FF4B8
:100F8000A07745F210364FF4F07280B170484FF000
:100F90000108494580F806800780A0F802C001D00A
:100FA000B1423ED12C2505814381848157E06848B8
:100FB0004FF00008494580F80680A0F800C047803F
:100FC00006D0A1F5D04CBCF1040C01D0B1420CD13B
:100FD0002C2505814381A1F5D0438481043B01D0B8
:100FE000B14244D10780428041E0514507D1A0F889
:100FF00008B0A0F80AE04FF42C5181810EE0A1F571
:10100000C856633E06D02221018120214181212141
:1010100081812CE02C2101814481838102804580E3
:1010200025E0A1F5D04CBCF1040C09D051450BD101
:10103000A0F808B0A0F80AE04FF42C53838120E018
:101040002C250581448109E0A1F5C85CBCF1630C45
:1010500011D0222303812123438120238381A1F501
:10106000D043043B01D0B14201D102804780BDE8AA
:10107000F04F0020F0E54FF02C0CA0F808C04381A1
:10108000848105804280EAE72DE9FC4F04469146C1
:101090004844401E86B2C818401E83B2009004EB3C
:1010A0000900401EC0F3072EDFF8A4C000980D46CB
:1010B000C0F3072B6046BCF804204FEA1128818951
:1010C0004089A2F513474FEA142A413F10D0A2F5F8
:1010D000A647103F0CD0A2F5D047043F08D09CF89B
:1010E000067041F6631C0197012F13D1624511D19F
:1010F000154F3880B81CA0F800A0E2B20280A0F81A
:1011000000E0F2B202803980A0F80080E9B20180EC
:10111000594626E00E4F62453F8827D1A7EB0902CA
:10112000121B094C009B92B29BB22080160AA01C95
:101130000680D6B206804A44521E160A0680D2B2F3
:101140000280218008E00000FE07006C1A000020E9
:101150007602002066660440A0F80080E9B20180B3
:10116000190A0180D9B20180BDE8FC8FA2F5A04C1C
:10117000BCF5A26C1FD0019801283FD0B44621468F
:101180002E4650204FF051094FF052085327FFF7D9
:10119000DDFB61464846FFF7D9FB31464046FFF785
:1011A000D5FB19463846FFF7D1FB29462046BDE856
:1011B000FC4FFFF7EFBBFE4A1080971CA7F800A07A
:1011C00000F1010CA2F800C0E4B23C80841C148041
:1011D000A7F800E0C01C1080F0B238801180A7F89A
:1011E0000080481C1080E8B23880881C1080A7F866
:1011F00000B0C91C1180D8B23880B5E7B81B401EBA
:1012000086B2381B9C46401E294683B2B9E72DE9B9
:10121000F043E84F0646002438887D884543B88867
:10122000A0F5D041043902D1B879012808D00021B5
:101230000846FFF7AFFBFFF797FBDD48801C15E082
:101240000020B8714FF02A09A7F80A904FF02B0838
:10125000A7F80C800146FFF79DFB0120B871A7F8A5
:101260000A80A7F80C90E6E70680641CAC42FBD32A
:10127000BDE8F0832DE9F04F01210E029FB030460A
:1012800004F0E4FB01214FF4B47004F0E8FB012703
:10129000ADF83C704FF010088DF83F8003248DF8B6
:1012A0003E400FA9C44804F0F2F94CF23370ADF897
:1012B0003C0018258DF83F508DF83E400FA9BF48DF
:1012C00004F0E5F94FF68070ADF83C008DF83F5022
:1012D0008DF83E400FA9BA4804F0D9F941F2010057
:1012E000ADF83C008DF83F508DF83E400FA9B54851
:1012F00004F0CDF900200F21CDE918011A901B90C0
:101300001C901D901090CDE91104CDE916071490A2
:1013100006211590CDE90010CDE902081390049044
:101320003101CDE908010690059007908900CDE9CB
:101330000A010C9017A80D9010A80E90684603F0B3
:1013400045FF0121062004F076F8322003F0EAFD83
:101350000020FFF700FB974D954C49F24139A880DA
:1013600046F6040A45F2103B45F210574FF6FF7857
:10137000FF2804D3404502D0B0F5134F70D1D320DD
:101380002080FFF7DAFAA880FFF7D7FAA880FFF7E6
:10139000D4FA08EA00204146A880FFF7CEFAAA88CE
:1013A0001043A88048455BD0BF202080FFF7C5FAD6
:1013B000A880FFF7C2FAA880FFF7BFFAA880FFF75E
:1013C000BCFA01EA0020A880FFF7B7FAAA88104308
:1013D000A880504544D0D4202080FFF7AEFAA880E2
:1013E000FFF7ABFAA880FFF7A8FA01EA0020A8806F
:1013F000FFF7A3FAAA881043A880584530D04FF4CD
:101400005A402080FFF799FAA8804FF45B40208073
:10141000FFF793FA01EA0020A8804FF45C40208097
:10142000FFF78BFAAA881043A880B0F5004F7DD053
:10143000B84215D0A1202080FFF77FFAA880FFF7DF
:101440007CFA01EA0020A880FFF777FAA988084310
:10145000A0F5AE41A880613902D141F66310A880A1
:10146000A98859A006F0F2F9A888514DAD1C48454D
:101470007ED1CF20208000202880C12028803020ED
:101480002880ED20208064202880032028801220DE
:10149000288081202880E820208085202880102036
:1014A00028807A202880CB202080392028802C207A
:1014B0002880002028803420288002202880F720DF
:1014C000208020202880EA2020800020288028807A
:1014D000C02020801B202880C1202080012028805F
:1014E000C5202080302028802880C7202080B72079
:1014F000288036202080482028803A2020805520CF
:101500002880B1202080002028801A202880B62042
:1015100020800A202880A2202880F220208000201D
:101520002880262020800120288000E066E0E0203E
:1015300020800F2028802A2028802820288008202A
:1015400028800E2028800820288054202880A92068
:101550002880432028800A2028800F20288000200F
:101560002880288028802880E1202080002000E03A
:1015700046E0288015202880172028800720288012
:1015800011202880062028802B20288056202880A3
:101590003C20288005202880102028800F202880CB
:1015A0003F20288028800F2028802B20208013E0D7
:1015B000FE07006C76020020000C01400014014080
:1015C0000018014000200140204C43442049443A87
:1015D00025780D0A000000000020288028800120C6
:1015E00028803F2028802A202080002028802880F2
:1015F0002880EF202880112020806EE0AF802FE728
:10160000504571D111202080142003F08BFCD02094
:10161000208007202880422028801D202880D1207B
:101620002080002028801A20288009202880D220AD
:1016300020800120288022202880C02020801020A7
:1016400028803B202880002028800220288011202C
:101650002880C520208003202880C82020800020EA
:10166000288025202880212028800520288000200F
:1016700028800A202880652028802520288077203F
:101680002880502028800F20288000202880F820E3
:10169000208001202880FE20208000202880022039
:1016A00028802020208036202080082028803A2092
:1016B0002080552028802B20208000202880288012
:1016C000012028803F2028802A2020800020288098
:1016D000288001202880DF202880782003F022FC49
:1016E000292001F02EBCFFE758457DD1ED20208058
:1016F00001202880FE202880EE202080DE20288007
:1017000021202880F120208001202880DF202080D7
:1017100010202880C42020808F202880C620208090
:1017200000202880E220288028802880BF20208078
:10173000AA202880B02020800D202880002028802A
:101740000D2028800020288011202880002028805B
:10175000192028800020288021202880002028802F
:101760002D202880002028803D20288000202880EF
:101770005D202880002028805D202880002028808F
:10178000B120208080202880002028808B20288085
:10179000002028809620288000202880B2202080E9
:1017A0000020288028800220288000202880032014
:1017B000288000202880B3202080002028802880D6
:1017C00028802880288028802880288028802880D9
:1017D00028802880288028802880288028802880C9
:1017E00028802880288000E0FEE328802880288048
:1017F000B42020808B2028800020288096202880FC
:1018000000202880A120288000202880B52020806A
:1018100002202880002028800320288000202880A3
:101820000420288000202880B620208000202880E6
:101830002880B72020800020288028803F20288012
:10184000002028805E2028800020288064202880B6
:10185000002028808C20288000202880AC20288030
:1018600000202880DC20288000202880702028800C
:10187000002028809020288000202880EB202880CD
:1018800000202880DC20288000202880B8202080AC
:101890000020288028802880288028802880288090
:1018A0002880BA20208024202880002028802880BA
:1018B0002880C120208020202880002028805420DB
:1018C000288000202880FF20288000202880C22037
:1018D00020800A20288000202880042028800020E2
:1018E0002880C32020803C202880002028803A20A7
:1018F0002880002028803920288000202880372058
:101900002880002028803C20288000202880362045
:1019100028800020288032202880002028802F2046
:101920002880002028802C20288000202880292042
:10193000288000202880262028800020288024203D
:101940002880002028802420288000202880232030
:101950002880002028803C202880002028803620F5
:1019600028800020288032202880002028802F20F6
:101970002880002028802C202880002028802920F2
:1019800028800020288026202880002028802420ED
:1019900028800020288024202880002028802320E0
:1019A000288000202880C4202080622028800020F9
:1019B000288005202880002028808420288000207E
:1019C0002880F020288000202880182028800020EF
:1019D0002880A4202880002028801820288000202B
:1019E000288050202880002028800C20288000207B
:1019F000288017202880002028809520288000201B
:101A00002880F320288000202880E62028800020DD
:101A10002880C52020803220288000202880442073
:101A200028800020288065202880002028807620BB
:101A30002880002028808820288000202880C62038
:101A40002080202028800020288017202880002047
:101A500028800120288000202880C72020800020A6
:101A60002880288028802880C82020800020288086
:101A7000288028802880C920208000202880288075
:101A80002880288028802880288028802880288016
:101A9000288028802880288028802880E0202080B6
:101AA00016202880002028801C20288000202880E4
:101AB00021202880002028803620288000202880AF
:101AC000462028800020288052202880002028805E
:101AD00064202880002028807A2028800020288008
:101AE0008B202880002028809920288000202880B2
:101AF000A820288000202880B92028800020288065
:101B0000C420288000202880CA2028800020288027
:101B1000D220288000202880D920288000202880FA
:101B2000E020288000202880F320288000202880C2
:101B3000E120208016202880002028801C2028807A
:101B4000002028802220288000202880362028801D
:101B500000202880452028800020288052202880CE
:101B60000020288064202880002028807A20288077
:101B7000002028808B202880002028809920288021
:101B800000202880A820288000202880B9202880D4
:101B900000202880C420288000202880CA20288097
:101BA00000202880D220288000202880D82028806B
:101BB00000202880E020288000202880F320288032
:101BC00000202880E2202080052028800020288016
:101BD0000B202880002028801B20288000202880BF
:101BE000342028800020288044202880002028805D
:101BF0004F20288000202880612028800020288015
:101C000079202880002028808820288000202880B3
:101C10009720288000202880A62028800020288067
:101C2000B720288000202880C2202880002028801B
:101C3000C720288000202880D120288000202880EC
:101C4000D620288000202880DD20288000202880C1
:101C5000F320288000202880E32020800520288091
:101C6000002028800A202880002028801C2028802E
:101C700000202880332028800020288044202880CD
:101C80000020288050202880002028806220288082
:101C90000020288078202880002028808820288024
:101CA000002028809720288000202880A6202880D7
:101CB00000202880B720288000202880C22028808B
:101CC00000202880C720288000202880D12028805C
:101CD00000202880D520288000202880DD20288032
:101CE00000202880F320288000202880E420208005
:101CF00001202880002028800120288000202880C2
:101D000002202880002028802A2028800020288087
:101D10003C202880002028804B202880002028801C
:101D20005D202880002028807420288000202880C2
:101D3000842028800020288093202880002028806C
:101D4000A220288000202880B3202880002028801E
:101D5000BE20288000202880C420288000202880E1
:101D6000CD20288000202880D320288000202880B3
:101D7000DD20288000202880F32028800020288073
:101D8000E5202080002028802880288028800220CC
:101D900028800020288029202880002028803C20BE
:101DA0002880002028804B202880002028805D206B
:101DB000288000202880742028800020288084200B
:101DC0002880002028809320288000202880A220BE
:101DD000288000202880B320288000202880BE2072
:101DE000288000202880C420288000202880CD2042
:101DF000288000202880D320288000202880DC2014
:101E0000288000202880F320288000202880E620D9
:101E10002080112028800020288034202880002065
:101E200028805620288000202880762028800020C6
:101E300028807720288000202880662028800020A5
:101E40002880882028800020288099202880002051
:101E50002880BB202880002028809920288000200E
:101E60002880662028800020288055202880002097
:101E700028805520288000202880452028800020A8
:101E800028804320288000202880442028800020AB
:101E90002880E720208032202880002028805520BC
:101EA0002880002028807620288000202880662036
:101EB0002880002028806720288000202880672034
:101EC00028800020288087202880002028809920D2
:101ED000288000202880BB2028800020288099208E
:101EE0002880002028807720288000202880442017
:101EF0002880002028805620288000202880232049
:101F00002880002028803320288000202880452039
:101F1000288000202880E820208000202880288039
:101F20009920288000202880872028800020288071
:101F30008820288000202880772028800020288082
:101F40006620288000202880882028800020288083
:101F5000AA20288000202880BB20288000202880FC
:101F60009920288000202880662028800020288052
:101F70005520288000202880552028800020288097
:101F800044202880002028804420288000202880A9
:101F90005520288000202880E9202080AA20288041
:101FA00000202880288028802080AA202880CF2018
:101FB0002080002028802880288028802880288071
:101FC00028802880288028802880288028802880D1
:101FD000288028802880F020208000202880502021
:101FE00028800020288000E02CE028802880F32032
:101FF000208000202880F9202080062028801020C2
:10200000288029202880002028803A202080552000
:10201000288011202080642002F084FF2920208065
:10202000352020800020288051202080FF2028801B
:10203000532020802C20288055202080822028803A
:102040002C20FDE3B8427CD14FF470435521184653
:10205000FEF77CFC4FF20105AA212846FEF776FC2C
:102060006E1C52213046FEF771FCAF1C0821384629
:10207000FEF76CFC4FF2040C01216046FEF766FC93
:102080000D214FF43040FEF761FC0D214BF20100B1
:10209000FEF75CFC0D214BF20200FEF757FC4FF4FB
:1020A000364934214846FEF751FC34214BF2016099
:1020B000FEF74CFC34214BF20260FEF747FC4FF474
:1020C000314A0D215046FEF741FC4BF2011B0D2118
:1020D0005846FEF73BFC0D214BF20210FEF736FC92
:1020E00034214FF43740FEF731FC34214BF20170BC
:1020F000FEF72CFC34214BF20270FEF727FC002186
:102100004FF43240FEF722FC00214BF20120FEF793
:102110001DFC00214BF20220FEF718FC24214FF495
:102120003840FEF713FC24214BF60100FEF70EFCAD
:1021300024214BF60200FEF709FC01214FF43F4039
:1021400000E0FCE3FEF702FC0F214FF43340FEF702
:10215000FDFB0F214BF20130FEF7F8FB0F214BF294
:102160000230FEF7F3FB34214FF43940FEF7EEFB6B
:1021700034214BF60110FEF7E9FB34214BF6021037
:10218000FEF7E4FB08214FF43540FEF7DFFB0821A2
:102190004BF20150FEF7DAFB08214BF20250FEF73A
:1021A000D5FB03214FF44240FEF7D0FB24214FF42E
:1021B0003A40FEF7CBFB24214BF60120FEF7C6FB8D
:1021C00024214BF60220FEF7C1FB00214FF43C40D6
:1021D000FEF7BCFB78214BF60140FEF7B7FB002170
:1021E0004BF60240FEF7B2FB00214FF43D40FEF7F4
:1021F000ADFB78214BF60150FEF7A8FB00214BF612
:102200000250FEF7A3FB00214FF43E40FEF79EFB79
:1022100064214BF60160FEF799FB00214FF4514019
:10222000FEF794FB33214DF20110FEF78FFB0021E6
:102230004DF20210FEF78AFB34214DF20310FEF737
:1022400085FB00214DF20410FEF780FB3A214DF290
:102250000510FEF77BFB00214DF20610FEF776FB22
:102260004A214DF20710FEF771FB00214DF20810D4
:10227000FEF76CFB5C214DF20910FEF767FB0021B5
:102280004DF20A10FEF762FB81214DF20B10FEF7B2
:102290005DFB00214DF20C10FEF758FBA6214DF21C
:1022A0000D10FEF753FB00214DF20E10FEF74EFB12
:1022B000E5214DF20F10FEF749FB01214DF2101000
:1022C000FEF744FB13214DF21110FEF73FFB0121F5
:1022D0004DF21210FEF73AFB54214DF21310FEF7A7
:1022E00035FB01214DF21410FEF730FB82214DF237
:1022F0001510FEF72BFB01214DF21610FEF726FB01
:10230000CA214DF21710FEF721FB02214DF21810E1
:10231000FEF71CFB00214DF21910FEF717FB0221FE
:102320004DF21A10FEF712FB01214DF21B10FEF7C1
:102330000DFB02214DF21C10FEF708FB34214DF27B
:102340001D10FEF703FB02214DF21E10FEF7FEFAF0
:1023500067214DF21F10FEF7F9FA02214DF220100D
:10236000FEF7F4FA84214DF22110FEF7EFFA022174
:102370004DF22210FEF7EAFAA4214DF22310FEF7E7
:10238000E5FA02214DF22410FEF7E0FAB7214DF2F2
:102390002510FEF7DBFA02214DF22610FEF7D6FAE1
:1023A000CF214DF22710FEF7D1FA02214DF228106D
:1023B000FEF7CCFADE214DF22910FEF7C7FA022112
:1023C0004DF22A10FEF7C2FAF2214DF22B10FEF761
:1023D000BDFA02214DF22C10FEF7B8FAFE214DF2A3
:1023E0002D10FEF7B3FA03214DF22E10FEF7AEFAD0
:1023F00010214DF22F10FEF7A9FA03214DF23010F3
:10240000FEF7A4FA33214DF23110FEF79FFA0321B3
:102410004DF23210FEF79AFA6D214DF23310FEF7AD
:1024200095FA00214FF45240FEF790FA33214DF215
:102430000120FEF78BFA00214DF20220FEF786FA0A
:1024400034214DF20320FEF781FA00214DF20420E1
:10245000FEF77CFA3A214DF20520FEF777FA0021CB
:102460004DF20620FEF772FA4A214DF20720FEF7E0
:102470006DFA00214DF20820FEF768FA5C214DF25A
:102480000920FEF763FA00214DF20A20FEF75EFAFA
:1024900081214DF20B20FEF759FA00214DF20C205C
:1024A000FEF754FAA6214DF20D20FEF74FFA002157
:1024B0004DF20E20FEF74AFAE5214DF20F20FEF70D
:1024C00045FA01214DF21020FEF740FA13214DF29A
:1024D0001120FEF73BFA01214DF21220FEF736FAE9
:1024E00054214DF21320FEF731FA01214DF2142050
:1024F000FEF72CFA82214DF21520FEF727FA012172
:102500004DF21620FEF722FACA214DF21720FEF7EF
:102510001DFA02214DF21820FEF718FA00214DF2A3
:102520001920FEF713FA02214DF21A20FEF70EFAD7
:1025300001214DF21B20FEF709FA02214DF21C2069
:10254000FEF704FA34214DF21D20FEF7FFF90221B7
:102550004DF21E20FEF7FAF967214DF21F20FEF71B
:10256000F5F902214DF22020FEF7F0F984214DF219
:102570002120FEF7EBF902214DF22220FEF7E6F9C9
:10258000A4214DF22320FEF7E1F902214DF224208F
:10259000FEF7DCF9B7214DF22520FEF7D7F902212D
:1025A0004DF22620FEF7D2F9CF214DF22720FEF77B
:1025B000CDF902214DF22820FEF7C8F9DE214DF2B7
:1025C0002920FEF7C3F902214DF22A20FEF7BEF9B9
:1025D000F2214DF22B20FEF7B9F902214DF22C2009
:1025E000FEF7B4F9FE214DF22D20FEF7AFF90321DD
:1025F0004DF22E20FEF7AAF910214DF22F20FEF702
:10260000A5F903214DF23020FEF7A0F933214DF258
:102610003120FEF79BF903214DF23220FEF796F9A7
:102620006D214DF23320FEF791F900214FF4534014
:10263000FEF78CF933214DF20130FEF787F90021C6
:102640004DF20230FEF782F934214DF20330FEF7ED
:102650007DF900214DF20430FEF778F93A214DF270
:102660000530FEF773F900214DF20630FEF76EF9E2
:102670004A214DF20730FEF769F900214DF208308A
:10268000FEF764F95C214DF20930FEF75FF9002195
:102690004DF20A30FEF75AF981214DF20B30FEF768
:1026A00055F900214DF20C30FEF750F9A6214DF2FC
:1026B0000D30FEF74BF900214DF20E30FEF746F9D2
:1026C000E5214DF20F30FEF741F901214DF21030B6
:1026D000FEF73CF913214DF21130FEF737F90121D5
:1026E0004DF21230FEF732F954214DF21330FEF75D
:1026F0002DF901214DF21430FEF728F982214DF217
:102700001530FEF723F901214DF21630FEF71EF9C0
:10271000CA214DF21730FEF719F902214DF2183097
:10272000FEF714F900214DF21930FEF70FF90221DE
:102730004DF21A30FEF70AF901214DF21B30FEF777
:1027400005F902214DF21C30FEF700F934214DF25B
:102750001D30FEF7FBF802214DF21E30FEF7F6F8B1
:1027600067214DF21F30FEF7F1F802214DF22030C3
:10277000FEF7ECF884214DF22130FEF7E7F8022154
:102780004DF22230FEF7E2F8A4214DF22330FEF79D
:10279000DDF802214DF22430FEF7D8F8B7214DF2D2
:1027A0002530FEF7D3F802214DF22630FEF7CEF8A1
:1027B000CF214DF22730FEF7C9F802214DF2283023
:1027C000FEF7C4F8DE214DF22930FEF7BFF80221F2
:1027D0004DF22A30FEF7BAF8F2214DF22B30FEF717
:1027E000B5F802214DF22C30FEF7B0F8FE214DF283
:1027F0002D30FEF7ABF803214DF22E30FEF7A6F890
:1028000010214DF22F30FEF7A1F803214DF23030A8
:10281000FEF79CF833214DF23130FEF797F8032193
:102820004DF23230FEF792F86D214DF23330FEF763
:102830008DF800214FF45440FEF788F8332100E072
:102840007FE34DF20140FEF781F800214DF2024096
:10285000FEF77CF834214DF20340FEF777F80021B3
:102860004DF20440FEF772F83A214DF20540FEF7B2
:102870006DF800214DF20640FEF768F84A214DF24E
:102880000740FEF763F800214DF20840FEF75EF8BE
:102890005C214DF20940FEF759F800214DF20A4043
:1028A000FEF754F881214DF20B40FEF74FF800215E
:1028B0004DF20C40FEF74AF8A6214DF20D40FEF70E
:1028C00045F800214DF20E40FEF740F8E5214DF2AB
:1028D0000F40FEF73BF801214DF21040FEF736F8AD
:1028E00013214DF21140FEF731F801214DF2124053
:1028F000FEF72CF854214DF21340FEF727F8012182
:102900004DF21440FEF722F882214DF21540FEF7F9
:102910001DF801214DF21640FEF718F8CA214DF2BC
:102920001740FEF713F802214DF21840FEF70EF89B
:1029300000214DF21940FEF709F8022100E002E300
:102940004DF21A40FEF702F801214DF21B40FDF74F
:10295000FDFF02214DF21C40FDF7F8FF34214DF23E
:102960001D40FDF7F3FF02214DF21E40FDF7EEFF83
:1029700067214DF21F40FDF7E9FF02214DF2204093
:10298000FDF7E4FF84214DF22140FDF7DFFF022136
:102990004DF22240FDF7DAFFA4214DF22340FDF76E
:1029A000D5FF02214DF22440FDF7D0FFB7214DF2B3
:1029B0002540FDF7CBFF02214DF22640FDF7C6FF73
:1029C000CF214DF22740FDF7C1FF02214DF22840F3
:1029D000FDF7BCFFDE214DF22940FDF7B7FF0221D4
:1029E0004DF22A40FDF7B2FFF2214DF22B40FDF7E8
:1029F000ADFF02214DF22C40FDF7A8FFFE214DF264
:102A00002D40FDF7A3FF03214DF22E40FDF79EFF61
:102A100010214DF22F40FDF799FF03214DF2304078
:102A2000FDF794FF33214DF23140FDF78FFF032175
:102A30004DF23240FDF78AFF6D214DF23340FDF734
:102A400085FF00214FF45540FDF780FF33214DF203
:102A50000150FDF77BFF00214DF20250FDF776FF9C
:102A600034214DF20350FDF771FF00214DF2045067
:102A7000FDF76CFF3A214DF20550FDF767FF00218D
:102A80004DF20650FDF762FF4A214DF20750FDF767
:102A90005DFF00214DF20850FDF758FF5C214DF21B
:102AA0000950FDF753FF00214DF20A50FDF74EFF8C
:102AB00081214DF20B50FDF749FF00214DF20C50E2
:102AC000FDF744FFA6214DF20D50FDF73FFF002119
:102AD0004DF20E50FDF73AFFE5214DF20F50FDF794
:102AE00035FF01214DF21050FDF730FF13214DF25B
:102AF0001150FDF72BFF01214DF21250FDF726FF7B
:102B000054214DF21350FDF721FF01214DF21450D5
:102B1000FDF71CFF82214DF21550FDF717FF012133
:102B20004DF21650FDF712FFCA214DF21750FDF776
:102B30000DFF02214DF21850FDF708FF00214DF264
:102B40001950FDF703FF02214DF21A50FDF7FEFE6A
:102B500001214DF21B50FDF7F9FE02214DF21C50F0
:102B6000FDF7F4FE34214DF21D50FDF7EFFE02217A
:102B70004DF21E50FDF7EAFE67214DF21F50FDF7A2
:102B8000E5FE02214DF22050FDF7E0FE84214DF2DA
:102B90002150FDF7DBFE02214DF22250FDF7D6FE5B
:102BA000A4214DF22350FDF7D1FE02214DF2245015
:102BB000FDF7CCFEB7214DF22550FDF7C7FE0221EF
:102BC0004DF22650FDF7C2FECF214DF22750FDF702
:102BD000BDFE02214DF22850FDF7B8FEDE214DF278
:102BE0002950FDF7B3FE02214DF22A50FDF7AEFE4B
:102BF000F2214DF22B50FDF7A9FE02214DF22C508F
:102C0000FDF7A4FEFE214DF22D50FDF79FFE03219E
:102C10004DF22E50FDF79AFE10214DF22F50FDF788
:102C200095FE03214DF23050FDF790FE33214DF219
:102C30003150FDF78BFE03214DF23250FDF786FE39
:102C40006D214DF23350FDF781FE00214FF45640C7
:102C5000FDF77CFE33214DF20160FDF777FE002188
:102C60004DF20260FDF772FE34214DF20360FDF774
:102C70006DFE00214DF20460FDF768FE3A214DF231
:102C80000560FDF763FE00214DF20660FDF75EFE74
:102C90004A214DF20760FDF759FE00214DF2086010
:102CA000FDF754FE5C214DF20960FDF74FFE002157
:102CB0004DF20A60FDF74AFE81214DF20B60FDF7EF
:102CC00045FE00214DF20C60FDF740FEA6214DF2BD
:102CD0000D60FDF73BFE00214DF20E60FDF736FE64
:102CE000E5214DF20F60FDF731FE01214DF210603C
:102CF000FDF72CFE13214DF21160FDF727FE012197
:102D00004DF21260FDF722FE54214DF21360FDF7E3
:102D10001DFE01214DF21460FDF718FE82214DF2D7
:102D20001560FDF713FE01214DF21660FDF70EFE52
:102D3000CA214DF21760FDF709FE02214DF218601D
:102D4000FDF704FE00214DF21960FDF7FFFD0221A1
:102D50004DF21A60FDF7FAFD01214DF21B60FDF7FF
:102D6000F5FD02214DF21C60FDF7F0FD34214DF21E
:102D70001D60FDF7EBFD02214DF21E60FDF7E6FD43
:102D800067214DF21F60FDF7E1FD02214DF2206049
:102D9000FDF7DCFD84214DF22160FDF7D7FD022116
:102DA0004DF22260FDF7D2FDA4214DF22360FDF724
:102DB000CDFD02214DF22460FDF7C8FDB7214DF293
:102DC0002560FDF7C3FD02214DF22660FDF7BEFD33
:102DD000CF214DF22760FDF7B9FD02214DF22860A9
:102DE000FDF7B4FDDE214DF22960FDF7AFFD0221B4
:102DF0004DF22A60FDF7AAFDF2214DF22B60FDF79E
:102E0000A5FD02214DF22C60FDF7A0FDFE214DF243
:102E10002D60FDF79BFD03214DF22E60FDF796FD21
:102E200010214DF22F60FDF791FD03214DF230602E
:102E3000FDF78CFD33214DF23160FDF787FD032155
:102E40004DF23260FDF782FD6D214DF23360FDF7EA
:102E50007DFD55211846FDF779FDAA212846FDF78D
:102E600075FD52213046FDF771FD08213846FDF70A
:102E70006DFD00216046FDF769FDCC215046FDF750
:102E800065FD00215846FDF761FD05214846FDF727
:102E90005DFD70214FF43740FDF758FD70214BF276
:102EA0000170FDF753FD01214FF43840FDF74EFD51
:102EB00003214BF60100FDF749FD03214BF602000B
:102EC000FDF744FD03214BF60300FDF73FFD022112
:102ED0004FF43C40FDF73AFD00214BF60140FDF771
:102EE00035FD00214BF60240FDF730FDD0214FF4B7
:102EF0004940FDF72BFD02214CF60110FDF726FDA0
:102F000050214CF60210FDF721FD50214CF6031024
:102F1000FDF71CFD50214CF60410FDF717FD0021B4
:102F20004FF45450FDF712FD55214FF46850FDF752
:102F30000DFD4FF488502080782001F0DCFF4FF425
:102F400024502080FEE3A0F513414FF4E06940F2E5
:102F5000022A4FF4274B25392ED0A0F5134140F219
:102F6000077728397ED0A0F513414FF4887B2039AC
:102F700079D0A0F51341313976D0A0F5A8410839B0
:102F800073D0A0F5A8514FF4407B05396ED0A0F561
:102F9000354105396BD0A0F54541053968D0A0F51C
:102FA0008A4131397ED0A0F58A4135397BD0A0F5F0
:102FB000C851633978D0C5E747F6F001E520FDF741
:102FC000C5FC31460120FDF7C1FC49460220FDF752
:102FD000BDFC41F230010320FDF7B8FC00210420C4
:102FE000FDF7B4FC51460820FDF7B0FC0021092094
:102FF000FDF7ACFC00210A20FDF7A8FC00210C2005
:10300000FDF7A4FC00210D20FDF7A0FC00210F20FE
:10301000FDF79CFC00211020FDF798FC07211120F2
:10302000FDF794FC00211220FDF790FC00211320F5
:10303000FDF78CFC00210720FDF788FC41F2906130
:103040001020FDF783FC40F227211120FDF77EFCC4
:103050009D211220FDF77AFC4FF4C8511320FDF793
:1030600075FC06E080E03CE1E1E1B7E253E3FDE31B
:10307000FDE325212920FDF769FC0D212B20FDF71B
:1030800065FC07213020FDF761FC40F2033131205F
:10309000FDF75CFC03213220FDF758FC40F20621CD
:1030A000352002E0FEE3FEE3FEE3FDF74FFC0821DE
:1030B0003620FDF74BFC40F206413720FDF746FC79
:1030C0004FF441713820FDF741FC07213920FDF70D
:1030D0003DFC40F202613C20FDF738FC08213D2018
:1030E000FDF734FC00215020FDF730FCEF2151208A
:1030F000FDF72CFC00215220FDF728FC40F23F1187
:103100005320FDF723FC59466020FDF71FFC0121E9
:103110006120FDF71BFC00216A20FDF717FC002150
:103120008020FDF713FC00218120FDF70FFC00211A
:103130008220FDF70BFC00218320FDF707FC002116
:103140008420FDF703FC00218520FDF7FFFB102103
:103150009020FDF7FBFB4FF4C0619220FDF7F6FBDA
:1031600040F233110720FDE341F28F01EC20FDF71F
:10317000EDFB41F23421EF20FDF7E8FB3146012061
:10318000FDF7E4FB49460220FDF7E0FB41F2300188
:103190000320FDF7DBFB00210420FDF7D7FB5146A0
:1031A0000820FDF7D3FB00210920FDF7CFFB00210C
:1031B0000A20FDF7CBFB01210C20FDF7C7FB002106
:1031C0000D20FDF7C3FB00210F20FDF7BFFB002101
:1031D0001020FDF7BBFB07211120FDF7B7FB0021F5
:1031E0001220FDF7B3FB00211320FDF7AFFB0121F7
:1031F0000720FDF7ABFB322001F094FE41F2904135
:103200001020FDF7A3FB40F227211120FDF79EFBC4
:10321000322001F087FE8A211220FDF797FB322031
:1032200001F080FE4FF4D0511320FDF78FFB0621F3
:103230002920FDF78BFB0D212B20FDF787FB32208A
:1032400001F070FE00212020FDF780FB00212120ED
:10325000FDF77CFB322001F065FE00213020FDF7F8
:1032600075FB40F204613120FDF770FB40F205313F
:103270003220FDF76BFB00213520FDF767FB40F6A0
:1032800009413620FDF762FB4FF401713720FDF74D
:103290005DFB40F201313820FDF758FB39463920FB
:1032A000FDF754FB00213C20FDF750FB40F60A21BE
:1032B0003D20FDF74BFB322001F034FE0021502071
:1032C000FDF744FBEF215120FDF740FB0021522088
:1032D000FDF73CFB40F23F115320FDF737FB594609
:1032E00051E100210846FDF731FB31460120FDF791
:1032F0002DFB49460220FDF729FB41F23001032056
:10330000FDF724FB00210420FDF720FB5146082097
:10331000FDF71CFB00210920FDF718FB00210A2006
:10332000FDF714FB01210C20FDF710FB00210D20FF
:10333000FDF70CFB00210F20FDF708FB322001F008
:10334000F1FD40F201110720FDF700FB322001F0F2
:10335000E9FD4FF486511020FDF7F8FA07211120FE
:10336000FDF7F4FA5B4659461220FDF7EFFA4FF4E9
:1033700030611320FDF7EAFA00212920FDF7E6FA73
:1033800044F210012B20FDF7E1FA00215020FDF757
:10339000DDFAEF215120FDF7D9FA00215220FDF787
:1033A000D5FA40F23F115320FDF7D0FA4FF41C51EB
:1033B0006020FDF7CBFA01216120FDF7C7FA00215B
:1033C0006A20FDF7C3FA00218020FDF7BFFA002133
:1033D0008120FDF7BBFA00218220FDF7B7FA00211A
:1033E0008320FDF7B3FA00218420FDF7AFFA002116
:1033F0008520FDF7ABFA10219020FDF7A7FA0021F8
:103400009220FDF7A3FA01219320FDF79FFA1946B8
:103410009520FDF79BFA00219720FDF797FA0021F0
:103420009820FDF793FA40F27311072086E341F2EA
:103430001401E720FDF78AFA31460120FDF786FAEC
:103440004FF400710220FDF781FA41F238010320A8
:10345000FDF77CFA51460820FDF778FA0021092093
:10346000FDF774FA00210A20FDF770FA00210C2004
:10347000FDF76CFA00210D20FDF768FA00210F20FE
:10348000FDF764FA00211020FDF760FA07211120F2
:10349000FDF75CFA00211220FDF758FA00211320F5
:1034A000FDF754FAC82001F03DFD41F29061102073
:1034B000FDF74CFA40F227211120FDF747FA3220A0
:1034C00001F030FD0C211220FDF740FA322001F00E
:1034D00029FD4FF400611320FDF738FA112129204E
:1034E000FDF734FA0B212B20FDF730FA322001F0E2
:1034F00019FD00212020FDF729FA40F23F1319465B
:103500002120FDF723FA00213020FDF71FFA4FF4A8
:10351000837421463120FDF719FA00213220FDF78E
:1035200015FA4FF401713520FDF710FA41F20A61E6
:103530003620FDF70BFA39463720FDF707FA21460A
:103540003820FDF703FA39463920FDF7FFF940F23C
:1035500002413C20FDF7FAF940F60F413D20FDF70E
:10356000F5F900215020FDF7F1F9EF215120FDF789
:10357000EDF900215220FDF7E9F919465320FDF736
:10358000E5F94FF41C516020FDF7E0F901216120BD
:10359000FDF7DCF900216A20FDF7D8F90021802031
:1035A000FDF7D4F900218120FDF7D0F90021822018
:1035B000FDF7CCF900218320FDF7C8F90021842014
:1035C000FDF7C4F900218520FDF7C0F910219020F6
:1035D000FDF7BCF94FF4C0619220FDE331460120B4
:1035E000FDF7B4F949460220FDF7B0F941F2300188
:1035F0000320FDF7ABF900210420FDF7A7F940F205
:1036000007210820FDF7A2F900210920FDF79EF906
:1036100000210A20FDF79AF900210C20FDF796F908
:1036200000210D20FDF792F900210F20FDF78EF902
:10363000142001F077FC41F2B0611020FDF786F90B
:1036400001211120FDF782F901211720FDF77EF9F4
:103650004FF49C711220FDF779F94FF400611320AB
:10366000FDF774F909212920FDF770F909212A20B5
:10367000FDF76CF90021A420FDF768F90021502026
:10368000FDF764F9EF215120FDF760F90021522088
:10369000FDF75CF940F23F115320FDF757F94FF465
:1036A0001C516020FDF752F901216120FDF74EF910
:1036B00000216A20FDF74AF900218020FDF746F934
:1036C00000218120FDF742F900218220FDF73EF91B
:1036D00000218320FDF73AF900218420FDF736F917
:1036E00000218520FDF732F913219020FDF72EF9F6
:1036F00000219220FDF72AF903219320FDF726F9F6
:1037000059469520FDF722F940F273110720FDF785
:103710001DF9322011E100210720FDF717F93220B1
:1037200001F000FC4FF48E711220FDF70FF901211A
:10373000A420FDF70BF90F210820FDF707F9082158
:103740000A2000E07BE3FDF701F908210D20FDF7D9
:10375000FDF839463020FDF7F9F807213120FDF753
:10376000F5F840F203613220FDF7F0F84C46494687
:103770003320FDF7EBF851463420FDF7E7F802213E
:103780003520FDF7E3F841F60F713620FDF7DEF83E
:1037900039463720FDF7DAF800213820FDF7D6F852
:1037A00000213920FDF7D2F839463A20FDF7CEF84E
:1037B00000213B20FDF7CAF807213C20FDF7C6F8A1
:1037C00000213D20FDF7C2F8322001F0ABFB0121C2
:1037D0000720FDF7BBF801211720FDF7B7F83220CD
:1037E00001F0A0FB4FF4BD511020FDF7AFF840F2FF
:1037F00017211120FDF7AAF84FF48F711220FDF761
:10380000A5F84FF470611320FDF7A0F800212A20DD
:10381000FDF79CF80A212920FDF798F84FF49F71D5
:103820001220FDF793F800215020FDF78FF8EF21CB
:103830005120FDF78BF800215220FDF787F840F268
:103840003F115320FDF782F84FF41C516020FDF723
:103850007DF801216120FDF779F800216A20FDF74C
:1038600075F800218020FDF771F801E068E066E15D
:1038700000218120FDF76AF800218220FDF766F81B
:1038800000218320FDF762F800218420FDF75EF817
:1038900000218520FDF75AF813219020FDF756F8F6
:1038A000594602E015E2CBE272E39220FDF74EF8B2
:1038B00005219320FDF74AF800219520FDF746F8F1
:1038C00000219720FDF742F800219820FDF73EF8EF
:1038D00031460120FDF73AF821460220FDF736F87F
:1038E00041F238010320FDF731F800210420FDF7F3
:1038F0002DF800210C20FDF729F800210F20FDF7FD
:1039000025F800212020FDF721F800212120FDF7D6
:103910001DF821210720FDF719F8142001F002FB02
:1039200061210720FDF712F8142001F0FBFA40F2A4
:1039300073110720FDF70AF8142001F0F3FAA1E350
:1039400000210846FDF702F800210846FCF7FEFFBB
:1039500000210846FCF7FAFF00210846FCF7F6FFB5
:10396000012100E0E6E0A420FCF7F0FF142001F0C4
:10397000D9FA4FF41C5421466020FCF7E7FF554666
:1039800051460820FCF7E2FF4FF405713020FCF7A8
:10399000DDFF43F215713120FCF7D8FF40F20461DE
:1039A0003220FCF7D3FF40F616613320FCF7CEFF40
:1039B00042F211213420FCF7C9FF4FF4A851352001
:1039C000FCF7C4FF48F207513620FCF7BFFF41F275
:1039D00007413720FCF7BAFF41F203413820FCF7DA
:1039E000B5FF20213920FCF7B1FF1A219020FCF708
:1039F000ADFF00211020FCF7A9FF07211120FCF7E3
:103A0000A5FF00211220FCF7A1FF00211320FCF7E5
:103A10009DFF142001F086FA4FF4E6611020FCF7B8
:103A200095FF40F237111120FCF790FF142001F0B0
:103A300079FA4FF4DC711220FCF788FF142001F0B2
:103A400071FA4FF470611320FCF780FF80212A2067
:103A5000FCF77CFF48212920FCF778FF142001F0B7
:103A600061FA31460120FCF771FF49460220FCF75C
:103A70006DFF41F238010320FCF768FF294608205A
:103A8000FCF764FF00210A20FCF760FF00210C20F6
:103A9000FCF75CFF00210D20FCF758FF30210E20C1
:103AA000FCF754FF00215020FCF750FFEF2151207C
:103AB000FCF74CFF00215220FCF748FF40F23F1179
:103AC0005320FCF743FF21466020FCF73FFF012114
:103AD0006120FCF73BFF00216A20FCF737FF112132
:103AE0009020FCF733FF4FF4C0619220FCF72EFFCB
:103AF00040F202419320FCF729FF02219420FCF7B9
:103B000025FF142001F00EFA01210720FCF71EFF0B
:103B1000142001F007FA61210720FCF717FF40F29B
:103B200073110720FCF712FF00212020FCF70EFF85
:103B300000212120FCF70AFF222100207DE1002145
:103B40000846FCF703FF00210846FCF7FFFE14209F
:103B500001F0E8F900210846FCF7F8FE00210846CC
:103B6000FCF7F4FE00210846FCF7F0FE00210846B1
:103B7000FCF7ECFE0121A420FCF7E8FE142001F084
:103B8000D1F94FF41C516020FCF7E0FE40F606012D
:103B90000820FCF7DBFE40F2037319463020FCF7E7
:103BA000D5FE01213120FCF7D1FE04213220FCF7A3
:103BB000CDFE4FF481713320FCF7C8FE5C465946B8
:103BC0003420FCF7C3FE40F203113520FCF7BEFEA3
:103BD0001F213620FCF7BAFE19463720FCF7B6FE47
:103BE00001213820FCF7B2FE04213920FCF7AEFE9B
:103BF00015219020FCF7AAFE4FF482611020FCF7FB
:103C0000A5FE40F247211120FCF7A0FE4FF4DE7123
:103C10001220FCF79BFE4FF460611320FCF796FE28
:103C2000782001F07FF931460120FCF78FFE4FF438
:103C300000710220FCF78AFE41F230010320FCF7FC
:103C400085FE08210A20FCF781FE00210C20FCF7EC
:103C50007DFE20210E20FCF779FE00210F20FCF7CD
:103C600075FE00212020FCF771FE00212120FCF7C9
:103C70006DFE3D212A20FCF769FE142001F052F967
:103C80002D212920FCF762FE00215020FCF75EFE6A
:103C90004DF2EF015120FCF759FE00215220FCF7B4
:103CA00055FE40F23F115320FCF750FE00216120E9
:103CB000FCF74CFE00216A20FCF748FE21469220CA
:103CC000FCF744FE05219320FCF740FE3146FFF748
:103CD000ACBB01210020FCF739FE0A2001F022F9DB
:103CE00041F228611020FCF731FE0E211220FCF772
:103CF0002DFE40F639211320FCF728FE0A2001F0A2
:103D000011F940211120FCF721FE50211520FCF76C
:103D10001DFE0A2001F006F91E211220FCF716FEF6
:103D20000A2001F0FFF84FF4B1511020FCF70EFE0D
:103D300042F639211320FCF709FE0A2001F0F2F8BF
:103D400031460120FCF702FE59460220FCF7FEFD39
:103D500041F238010320FCF7F9FD51460820FCF739
:103D6000F5FD08210A20FCF7F1FD00213020FCF7C9
:103D7000EDFD40F202413120FCF7E8FD4FF4837184
:103D80003220FCF7E3FD40F203513320FCF7DEFD67
:103D90004FF482713420FCF7D9FD40F20131352017
:103DA000FCF7D4FD39463620FCF7D0FD40F2053152
:103DB0003720FCF7CBFD4FF402713820FCF7C6FD2D
:103DC00040F60B713920FCF7C1FD02214120FCF7C0
:103DD000BDFD4FF41C5100E0D5E06020FCF7B6FDBE
:103DE00001216120FCF7B2FD4FF404719020FCF733
:103DF000ADFD4FF485719220FCF7A8FD04219320BE
:103E0000FCF7A4FD3146A020FCF7A0FD012107200E
:103E1000FCF79CFD21210720FCF798FD23210720BA
:103E2000FCF794FD33210720FCF790FD40F233119D
:103E30000720FCF78BFD0021A020FCF787FD21E186
:103E400030211520FCF782FD10219A20FCF77EFD21
:103E500020211120FCF77AFD43F228411020FCF7C5
:103E600075FD02211220FCF771FD41F2380113208B
:103E7000FCF76CFD282001F055F812210846FCF7EC
:103E800065FD282001F04EF843F220411020FCF798
:103E90005DFD43F238011320FCF758FD462001F088
:103EA00041F800213020FCF751FD40F20241312061
:103EB000FCF74CFD40F207313220FCF747FD4FF490
:103EC00041713320FCF742FD04213420FCF73EFD14
:103ED00040F201413520FCF739FD39463620FCF728
:103EE00035FD40F205313720FCF730FD4FF4C26359
:103EF00019463820FCF72AFD19463920FCF726FD23
:103F000031460120FCF722FD59460220FCF71EFD38
:103F100041F230010320FCF719FD40F608010820AA
:103F2000FCF714FD08210A20FCF710FD4FF41C518A
:103F30006020FCF70BFD01216120FCF707FD4FF429
:103F40009F719020FCF702FD31469220FCF7FEFCA9
:103F500031469320FCF7FAFC4FF44051A020FCF7C7
:103F6000F5FC1021A320FCF7F1FC01210720FCF750
:103F7000EDFC21210720FCF7E9FC23210720FCF7B9
:103F8000E5FC33210720FCF7E1FC40F233119EE60B
:103F9000E22020801D202880022028800420288004
:103FA000642000F0A8FFE0202080012028800A2063
:103FB00000F0B8FFE0202080032028800C2000F0D3
:103FC000B1FF012020800A2000F0ACFFE620208015
:103FD0002F202880FF2028802880B02020802020CB
:103FE0002880002028800320288040F21F3028806D
:103FF0000120288040F2DF10288000202880B42093
:1040000020800420288040F21F4028800020288043
:104010002E20288000202880288028802880B62014
:104020002080022028804FF4037028800020288000
:104030001720288015202880002028802880F02044
:1040400020800320288029202080D020208000206C
:104050002880BE20208005202880FE202880012086
:1040600028800020288028802880B82020800320F5
:10407000288001202880BA20208001202880642008
:10408000FCF752FF0020FCF768FFFF490120C1F850
:1040900080014046FDF7BBF81FB0BDE8F08F2DE969
:1040A000F843FA4D1F468046AB88089EA3F5D040E2
:1040B000043802D1A879012807D0A2EB0800401CDF
:1040C00085B20C46DFF8C89328E02B880846991A79
:1040D0000024AC713A462A24A3EB08036C812B27F9
:1040E000491E5B1EAF8189B29BB20096FFF7D7FFD6
:1040F0000120A8716F81AC81BDE8F883214640465C
:10410000FCF748FCFCF730FC0020494602E00E803A
:10411000401C80B2A842FAD3641CA4B2BC42EDD9C0
:10412000EAE72DE9F0478246A2EB0A00401C0E4662
:1041300085B2981B401C87B20024DFF85493DDF849
:10414000208014E0301981B25046FCF723FCFCF7C4
:104150000BFC0020494606E004FB050338F8132059
:104160000A80401C80B2A842F6D3641CA4B2BC42B0
:10417000E8D3BDE8F0872DE9FE4F0026A2EB00084A
:1041800082465F1A701E35468946B8F1000F02DD7F
:104190004FF0010102E003D14FF00001019102E074
:1041A000C8F100080190002F02DD4FF0010002E08D
:1041B00003D14FF00000009002E0C7F1000700902B
:1041C0004046B84501DD044600E03C46601C4FF027
:1041D000000B029015E01FFA89F11FFA8AF0FCF734
:1041E0000EFE46443D44A64202DD0199361B8A4438
:1041F000A54202DD00992D1B89440BF101001FFA35
:1042000080FB02998B45E6DDBDE8FE8FF0B51C46CC
:1042100015460E4607460B46FFF7ADFF3A462346C6
:1042200031461046FFF7A7FF23462A46194638466F
:10423000FFF7A1FF2A4623463146BDE8F04010466D
:1042400099E72DE9FC4F80460024154603200F46D0
:10425000A0EB450649E0781B81B208EB040A019007
:104260001FFA8AF0FCF7CBFD381B81B208EB050979
:1042700000901FFA89F0FCF7C2FD07EB040B1FFA50
:104280008BF11FFA89F0FCF7BAFD07EB05091FFA5D
:1042900089F11FFA8AF0FCF7B2FDA8EB040A1FFAB5
:1042A00089F11FFA8AF0FCF7AAFDA8EB05091FFAAD
:1042B0008BF11FFA89F0FCF7A2FD019881B21FFA79
:1042C0008AF0FCF79CFD009881B21FFA89F0FCF798
:1042D00096FD641C002E03DA06EB8406B61D04E08E
:1042E000601B06EB80066D1E0A36AC42B3DDBDE8EE
:1042F000FC8F2DE9F84F82461F460C468B46580727
:1043000000D0012000EBD70079084843203AC0B222
:1043100002F0FF090026009041E00C2F10D0102F72
:1043200012D0182F3ED15B4909EBC90001EB800088
:104330004FF00008855D28060AD5574802880BE033
:1043400009EB49005549F1E7554901EB0910EFE741
:104350000A9828B95048428821465046FCF75AFD31
:104360006806050E4948641CA4B24088A04219D9C9
:10437000A4EB0B00B84209D10AF101001FFA80FA40
:1043800042485C46018851450CD906E008F101001D
:1043900000F0FF08B8F1080FCDD3761CF6B20098F4
:1043A0008642BAD3BDE8F88F0346012000E05843A7
:1043B000491EC9B2FBD270472DE9FF4F81B00027DB
:1043C000DDF838B01D46924680463C46B9464FEA75
:1043D0005B0627E0281B401EC1B20A20FFF7E4FF5E
:1043E000BAFBF0F00A21B0FBF1F201FB120027B991
:1043F000691E8C4201DA48B101273030C2B206FB97
:10440000048080B25B46CDF8009006E006FB048095
:1044100080B25B462022CDF800900299FFF769FF39
:10442000641CE4B2AC42D5D305B036E62DE9FF4FAB
:1044300081B08046DDF83CA00E984FF000091F4681
:1044400093464C460AF00105460839E0381B401EE9
:10445000C1B20A20FFF7A8FFBBFBF0F00A21B0FBB6
:10446000F1F201FB1200B9F1000F05D1791E8C4267
:1044700002DAB8B14FF001093030C2B206FB048055
:1044800080B200950E9B16E000802142760200204B
:104490000008006C3EB300081A000020DAA80008EB
:1044A0004EAD00085FEA0A6006FB04800E9B80B2F6
:1044B000009508D530220299FFF71BFF641CE4B277
:1044C000BC42C3D3B0E72022F5E72DE9F84F0446FC
:1044D00000F0FF0810190D46DDE90A761FFA80FA90
:1044E00058191FFA80F94FF0000B11E0544502D320
:1044F000E819444685B24D450FD23B462946204631
:10450000CDF800B0FFF7F5FE04EB570084B2761C3F
:104510003278A2F120005E28E8D943E738B50121BE
:10452000082001F09CFA4FF43040ADF80000102054
:104530008DF8030003208DF802006946FE4C2046EA
:1045400001F0A5F84FF48041ADF8001048218DF836
:1045500003106946204601F09AF84FF410412046B6
:1045600001F0FFF86114204601F0FDF838BD2DE997
:10457000F05FF14E814605464FF4005A0024514643
:10458000304601F0F0F8B114304601F0ECF80120AB
:1045900000F0C8FC00274FF4004BB0465646514689
:1045A000404601F0DEF828065946404602D501F0A3
:1045B000D8F801E001F0D7F8012000F0B3FC314653
:1045C000404601F0D0F8012000F0ACFC68067F1CEA
:1045D000050EFFB2082FE1D359464746404601F089
:1045E000C2F8012000F09EFC49464FF48040B9F12A
:1045F000200F6DD010DCB9F1180F3CD2DFE809F0C4
:10460000686868686868684646686868686868686E
:1046100068686868686868682D297BD00BDCA9F138
:1046200021010C2927D2DFE801F0537575755398E5
:10463000989875757575412928D00EDC322969D096
:1046400005DC302966D0B9F1310F14D162E035298B
:1046500060D0B9F1400F0ED118E044297DD005DCBF
:10466000422913D0B9F1430F05D10FE045292FD0CE
:10467000B9F17F0F4ED0022000F054FC4FF480516E
:10468000384601F06EF80020BDE8F09F0025804616
:104690003146384601F065F8012000F043FC314610
:1046A000384601F060F84146384601F046F80028E7
:1046B0004FEA440002D040F0010401E020F0010480
:1046C000012000F02FFC6D1CEDB2082DE0D365E059
:1046D000002580463146384601F043F8012000F0BD
:1046E00021FC3146384601F03EF84146384601F09B
:1046F00024F800284FEA440002D040F0010401E011
:1047000020F00104012000F00DFC6D1CEDB2102D15
:10471000E0D343E0002580463146384601F021F8D9
:10472000012000F0FFFB3146384601F01CF84146FD
:10473000384601F002F800284FEA440003D040F068
:10474000010402E009E020F00104012000F0EAFB8E
:104750006D1CEDB2182DDFD320E0002580463146D8
:10476000384600F0FEFF012000F0DCFB3146384601
:1047700000F0F9FF4146384600F0DFFF00284FEA1D
:10478000440002D040F0010401E020F001040120C7
:1047900000F0C8FB6D1CEDB2202DE0D3012000F02D
:1047A000C1FB4FF48051384600F0DBFF022000F0DF
:1047B000B9FB204668E72DE9F05F0C4682460546C6
:1047C000EA2801D040F080055B4E4FF4005B59466B
:1047D000304600F0C8FFB114304600F0C4FF01209D
:1047E00000F0A0FB00274FF40049B0465E46594652
:1047F000404600F0B6FF28064946404602D500F084
:10480000B0FF01E000F0AFFF012000F08BFB31466C
:10481000404600F0A8FF012000F084FB68067F1CE2
:10482000050EFFB2082FE1D3012000F07BFB5046BC
:10483000BAF1210F7AD015DCBAF1210F69D2DFE885
:104840000AF0757575757575754040757575757572
:104850007575757575757575757568686868686856
:1048600068687500302817D00BDCAAF122000C28EC
:104870004FD2DFE800F08484845BA3A3A384848404
:10488000848442281DD00EDC352878D005DC312800
:1048900075D0BAF1320F3CD171E0402811D0BAF195
:1048A000410F36D10DE0452840D005DC432808D023
:1048B000BAF1440F2DD181E07F2860D0BAF1EA0F20
:1048C00027D1002547463146384600F04AFF2006EA
:1048D0004946384602D500F044FF01E000F043FFAE
:1048E000012000F01FFB3146384600F03CFF01205C
:1048F00000F018FB6D1C6400EDB2082DE3D301201D
:1049000000F010FB5046FFF732FE01460BA002F00C
:104910009DFF022000F006FB4FF48051404600F05E
:1049200020FFBDE8F05F022000F0FCBA00254746FA
:104930003146384608E00000000C014020202025C8
:1049400078200D0A0000000000F00BFF2006494609
:10495000384602D500F005FF01E000F004FF012019
:1049600000F0E0FA3146384600F0FDFE012000F08C
:10497000D9FA6D1C6400EDB2102DD9D3BFE7002524
:1049800047463146384600F0ECFE20064946384698
:1049900002D500F0E6FE01E000F0E5FE012000F0A7
:1049A000C1FA3146384600F0DEFE012000F0BAFAC6
:1049B0006D1C6400EDB2182DE3D3A0E70025474637
:1049C0003146384600F0CDFE20064946384602D52D
:1049D00000F0C7FE01E000F0C6FE012000F0A2FAE0
:1049E0003146384600F0BFFE012000F09BFA6D1CF6
:1049F0006400EDB2202DE3D381E72DE9F041E521FC
:104A0000EA20FFF7D8FE0F2141F2034440F2E165AE
:104A1000602680270020FFF7CEFE21460120FFF709
:104A2000CAFE29460220FFF7C6FE31460320FFF7E3
:104A3000C2FE3946BDE8F0411720BCE62DE9F84F2B
:104A4000E521EA20FFF7B7FEFF4D4FF07E51A86B3E
:104A50000090044605F0F2FB8346594684F000407E
:104A600005F05AFC10F1FF4FDFF8E083DFF8E09328
:104A7000DFF8E0A3F84CF94EF94F0098594605D2FB
:104A800005F04AFC414605F06DFD07E005F044FCE9
:104A9000414605F067FDF34905F0D0FB05F0FEFC4B
:104AA00081B261810520FFF786FEE86B80F000404F
:104AB00005F098FB32463B4604F068FE04F0D2FB5A
:104AC0000022134605F07CF9E86B80F000400CD81A
:104AD00005F088FB32463B4604F058FE04F0C2FB6A
:104AE0004A46534604F052FE0FE005F07BFB324687
:104AF0003B4604F04BFE04F0B5FB4A46534604F037
:104B000045FE0022D84B04F085FD04F097FF81B2EA
:104B1000A182BDE8F84F07204DE62DE9F041CA4CCF
:104B2000DFF84883CC4D607804F0FCFF04F0F8FC1B
:104B300006460F46206C05F055FB32463B4605F015
:104B400041F80022134605F03BF9607811D804F0D3
:104B5000E9FF04F0E5FC06460F46206C05F042FB39
:104B600032463B4605F02EF80022434605F02AF86F
:104B700014E004F0D7FF04F0D3FC06460F46206C87
:104B800005F030FB32463B4605F01CF80022434658
:104B900005F018F80022B64B04F03CFD04F04EFF7F
:104BA00081B22983BDE8F041092004E670B50025F3
:104BB0002C462220FFF7DBFC0544052000F0B2F96B
:104BC000641CE4B20A2CF4D30A20B5FBF0F0404395
:104BD000C043C0F30F21A0484184BDE870400E20BF
:104BE000E9E570B52220FFF7C2FC05F073FC964C96
:104BF000E0602320FFF7BBFC05F06CFC2061242063
:104C0000FFF7B5FC05F066FC6061E3684FF0964283
:104C10000021934200DDE1602369934200DD2161C0
:104C2000904200DD616193486064206A05F052FCA7
:104C3000216905F063FD0146606805F06DFBA06425
:104C4000606A05F047FC616905F058FD054620786B
:104C500005F040FC294605F05FFBE0647E48A16852
:104C6000808801EB01114900484304F05BFF0246D4
:104C70000B468148814904F089FD04F099FC2065C8
:104C800070BD10B52220FFF772FC6F4CE06123204D
:104C9000FFF76DFC20622420FFF769FC606226208C
:104CA000FFF765FCA06210BD10B5674C2220FFF72E
:104CB0005EFC05F00FFCE0602320FFF758FC05F0D8
:104CC00009FC20612420FFF752FC05F003FC606121
:104CD0002620FFF74CFC05F0FDFBA0614FF4D82027
:104CE000E06164486064606A05F0F4FB616905F0A6
:104CF00005FC01D2002008E0E06905F0EBFBE1686B
:104D000005F0FCFC616C05F02DFC2063606A05F089
:104D1000E1FB616905F0F2FCE16C05F023FCE06267
:104D2000206A05F0D7FB216905F0E8FC216D05F04C
:104D300019FC606310BD10B5002145F2E37408460C
:104D4000FFF739FD2146BDE81040012033E52DE98C
:104D5000F05F00242220FFF70AFC0544052000F044
:104D6000E1F82420FFF703FC0644052000F0DAF800
:104D7000641CE4B20A2CEDD34FF00A0BB5FBFBF92F
:104D8000B6FBFBF5344EC9F3031205F0F000C9F38E
:104D90000F2102EB0014C5F30F2AF1841320FFF753
:104DA0000AFDA6F82AA051461520FFF704FDB48598
:104DB00021461620FFF7FFFC4FF47A74204600F0DE
:104DC000B1F8204600F0AEF800242220FFF7CFFB18
:104DD0000744052000F0A6F82420FFF7C8FB804414
:104DE000052000F09FF8641CE4B20A2CEDD3DA46EB
:104DF000B7FBFBF4B8FBFAF04C4501D8A8421BD92D
:104E00006FEA0900EA43C0F30F23C0F3031002F076
:104E1000F00100EB0117C2F30F251946F3841320AC
:104E2000FFF7C9FC758529461520FFF7C4FCB78537
:104E300039461620FFF7BFFC4FF47A75284600F07C
:104E400071F828461CE0000020000020000050C13E
:104E50007B14AE47E17A943F8402002083C0CAA14C
:104E600045B6FB3F000090410000244000002A406E
:104E70000000324026B49738A3923A014D54334093
:104E800000F050F800252220FFF771FB04440520B4
:104E900000F048F86D1CEDB20A2DF4D3B4FBFAF023
:104EA00080F00200B0FBFAF0C04381B27184BDE82B
:104EB000F05F0E207FE410B52220FFF758FB014978
:104EC000086010BD3402002010B56FF0040000F03F
:104ED00036F9204820490068B0FBF1F01F49C0B204
:104EE00000EB40020870C2EBC0104FF6FF7202EAFE
:104EF000C000488010BD1949097848434FF0E021AF
:104F0000486100238B61086940F00100086108696D
:104F1000C20701D0C003FAD5086920F0010008617A
:104F20008B6170470D49498848434FF0E021486143
:104F300000238B61086940F0010008610869C2071D
:104F400001D0C003FAD5086920F0010008618B6127
:104F5000704700000400002000127A007400002056
:104F6000704740490A885206FCD53E4AC1B2121D1C
:104F70001180704770B5054686B0012144F20400E7
:104F800000F06DFD4FF40070ADF8100003248DF8B3
:104F900012401820344E8DF8130004A9304600F05A
:104FA00076FB3015ADF8100004208DF8130004A92D
:104FB000304600F06CFB25208DF814008DF815406C
:104FC0008DF8164001208DF8170005A800F077F83D
:104FD0000020ADF80400ADF80600ADF80800ADF80B
:104FE0000C000C201F4CADF80A00009569462046C5
:104FF00001F02CFB012240F22551204601F0A3FBD9
:105000000121204601F095FB06B070BD70B5154C2E
:1050100040F22551204601F04DFC00280ED02046DC
:1050200001F0E1FB114AC1B21088030406D4440424
:105030004FF0000306D50A2901D0138070BD40F45B
:1050400000400DE00D2909D0C0F30D04084D401CAF
:1050500080B229551080C728EFD870BD40F4804039
:10506000108070BD00380140000801407800002029
:10507000D00200200948804709480047FEE7FEE7C4
:10508000FEE7FEE7FEE7FEE7FEE7FEE7FEE7FEE7F8
:1050900004480549054A064B7047000061070008AF
:1050A00031010008F8030020F8090020F80500206D
:1050B000F80500202849084328490860704730B5A2
:1050C0000F23C27801780125F2B1244A126801F158
:1050D000E02102F4E062C2F5E062120AC2F10404C7
:1050E000D3404278A24084781C401443220181F8C6
:1050F0000024007800F01F018D404009800000F17D
:10510000E020C0F8005130BD01F01F008540480983
:10511000800000F1E020C0F8805130BD104A1140FD
:1051200001430E48001F016070470C4A121D002900
:10513000116801D0014300E08143116070474FF0D6
:10514000E0210428086903D020F0040008617047BA
:1051500040F00400FAE700000000FA050CED00E062
:1051600080FFFF1F8100A1F1C04140B143F2D20096
:1051700008606FF070404860C1F8040170474FF05C
:10518000204243F2DB001060F3E710B518234024FF
:105190004FF020414FF0FC32102805D041F8803FFD
:1051A0004C608A60CA6010BD0B664C668A66CA662F
:1051B00010BD4FF02040182140F8A01F0021416091
:1051C0004FF0FC318160C1600161704710B5D0E9DA
:1051D00001121143D0E903231A43114342691143D9
:1051E00082691143C2691143026A1143426A114341
:1051F000826A1143C26A1143026B11430268920032
:10520000A2F1C04211608168082907D101688900B4
:10521000A1F1C0410A6842F040020A60416BD1E945
:10522000002342EA03128B688C891B0243EA044381
:105230001A430B8A42EA03520B7D896942EA0362F0
:105240000A4301688900A1F1C0414A60C16AB1F511
:10525000804F08D000686FF070418000A0F1C0401E
:10526000C0F8041110BD816BD1E9002342EA03129A
:105270008B680C8A1B0243EA04531A430B7D89692D
:1052800042EA036200680A438000A0F1C040C0F80F
:10529000042110BD30B5D0E901121143D0E9032338
:1052A0001A431143426941EA4221826941EA42318B
:1052B00041F00804C169D1E9002342EA03220B89C5
:1052C000097B1B0443EA01610A43016AD1E9003505
:1052D00043EA05230D89097B2D0445EA01610B434F
:1052E00001684FF02040102904D040F8804F8260C0
:1052F000C36030BD04668266C36630BD10B5D0E9B8
:10530000001241EA42218268102343EA42321143EB
:105310004FF0204242F8A01FC168D1E9003443EAAF
:1053200004230C89097B240444EA01610B43936044
:105330000169D1E9003443EA04230C89097B240480
:1053400044EA01610B43D3604069D0E9001341EAAC
:1053500003210389007B1B0443EA006001431161C0
:1053600010BD10B500210222C0E900128160C160A9
:10537000016141618161D202C161C0E9081252003C
:10538000C0E90A210163436B0F221A60436B5A6024
:10539000446BFF23A360446BE260446B2261446B67
:1053A0006261446BA161846B2260846B6260846B78
:1053B000A360836BDA60836B1A61836B5A61806BC5
:1053C000816110BD10210160002141608160C160D8
:1053D000016141618161C269FC211160C269516052
:1053E000C2699160C269D160026A1160026A51604B
:1053F000026A9160006AC1607047002101604160EB
:105400008160C268FC211160C2685160C26891600D
:10541000C268D160026911600269516002699160DD
:105420000269D160426911604269516042699160CC
:105430004069C16070478000A0F1C0400029016848
:1054400002D041F0010101E0644A1140016070475F
:105450004FF0204251B1102804D052F8800F40F094
:1054600004000AE0106E40F004000AE05B49C91E27
:10547000102804D052F8800F084010607047106E5A
:105480000840106670474FF02041002851F8A00FE7
:1054900002D040F0040002E0504AD21E10400860E2
:1054A00070474FF0204251B1102804D052F8800FBD
:1054B00040F040000AE0106E40F040000AE047492A
:1054C0003F39102804D052F8800F08401060704710
:1054D000106E0840106670474FF02041102802D02F
:1054E000D1F894007047486F704710B54FF480743E
:1054F0004FF0204372B1102804D0A04205D153F8D8
:10550000840F04E0586E08430DE053F8A40F0843DD
:10551000186010BD102804D0A04206D153F8840FA3
:1055200005E0586E8843586610BD53F8A40F8843B1
:10553000EEE7034600204FF02042102B08D0B3F5D1
:10554000807F07D0D2F8A4200A4200D00120704703
:10555000526EF9E7D2F88420F6E74FF02042102887
:1055600007D0B0F5807F08D052F8A40F88431060B0
:105570007047506E88435066704752F8840FF5E7C5
:10558000034600204FF02042102B0CD0B3F5807F53
:105590000BD0D2F8A4200A4202EAD10102D000299D
:1055A00000D001207047526EF5E7D2F88420F2E770
:1055B0004FF02042102808D0B0F5807F0AD052F872
:1055C000A40F20EAD10010607047506E20EAD1008D
:1055D0005066704752F8840FF3E70000FEFF0F009B
:1055E0008F4910B5884206D10121042000F049FA04
:1055F000002104203BE08B49884206D1012108208C
:1056000000F03FFA0021082031E08749884206D1A6
:105610000121102000F035FA0021102027E08349F5
:10562000884206D10121202000F02BFA0021202001
:105630001DE07F49884206D10121402000F021FA77
:105640000021402013E07B49884206D101218020BF
:1056500000F017FA0021802009E0774988420AD13A
:1056600084150121204600F00CFA00212046BDE8F7
:10567000104000F006BA10BD10B50121084600F038
:1056800000FA0021BDE81040012000F0FAB9F0B5A1
:10569000CC78002204F00F03E40601D58C78234374
:1056A0000C784FF00F0C14F0FF0F4FF0010E1BD0D1
:1056B00005680E880EFA02F42640A64210D1960024
:1056C0000CFA06F725EA070703FA06F5CE783D43FC
:1056D000282E02D0482E02D002E0446100E004618E
:1056E000521C082AE5D305600A88FF2A1CD94468A1
:1056F000002202F108060EFA06F50E882E40AE4290
:105700000ED196000CFA06F7BC4303FA06F7CE78E2
:105710003C43282E00D14561CE78482E00D105614A
:10572000521C082AE5D34460F0BD4FF6FF7101809A
:10573000022181700421C1707047024600209268E6
:105740000A4200D001207047806880B2704702464C
:105750000020D2680A4200D001207047C06880B2A1
:10576000704701617047416170470AB1016170473C
:1057700041617047C160704741F48032826181614C
:1057800082618169806970472C4B10B51A684FF6A9
:105790008074224042EA00100843186010BD284976
:1057A000C8617047F0B5254C002801DAE36900E0D4
:1057B0006368450D2E0185B2C0F30157B540C0F3B3
:1057C0000342032F05D0C6020AD503269640B343F1
:1057D00007E023F07062636823F07063636002E0A7
:1057E000AB4343F0706201B12A43002801DAE26161
:1057F000F0BD6260F0BD10B58A0721F003040F49C7
:10580000120F21440F238C6893409C438C608B685B
:10581000904003438B6010BD0949C1F8DC0070471C
:1058200000080140000C014000100140001401403C
:1058300000180140001C0140002001400000014010
:1058400000002042A548016841F001010160416863
:10585000A34A114041600168A24A114001600168F9
:1058600021F480210160416821F4FE0141604FF480
:105870001F018160704799490A6822F480320A60EA
:105880000A6822F480220A60B0F5803F07D0B0F5A4
:10589000802F03D1086840F4A02008607047086892
:1058A00040F48030F9E70346002059098B4A01296A
:1058B0000AD002290AD0516A03F01F020123934043
:1058C0000B4200D0012070471168F5E7116AF3E739
:1058D00018B500204FF4A06400903120FFF7E3FFDB
:1058E0000099491C0091A14201D00028F5D0312037
:1058F000FFF7D9FF002800D0012018BD774A1168B2
:1059000021F0F80141EAC000106070477649086054
:105910007047724B5A68084322F47C121043586057
:1059200070477149086670476C4A516821F003015D
:105930000143516070476948406800F00C007047AF
:10594000664A516821F0F001014351607047634A93
:10595000516821F4E0610143516070475F4A51682A
:1059600021F4605141EAC000506070475B4A002951
:10597000517A01D0014300E08143517270475A4986
:10598000C1F8D8007047554A516821F4404101439D
:10599000516070475149002281F8202081F8202071
:1059A000012802D0042802D1052081F82000704788
:1059B0004E490860704749490A6A02430A627047C3
:1059C0004A4944390860704730B5444A5168484BE9
:1059D00011F00C0103D0042901D0082901D0036083
:1059E00012E05168536801F470114FF0020413F48F
:1059F000803F04EB914102D053689B0301D53D4B9E
:105A000000E03B4B5943016051680F2303EA111139
:105A1000394B5C5C0168E14041605468072505EA48
:105A200014241C5D21FA04F48460546805EAD4242B
:105A30001B5DD940C1605268032303EA92322E4BAA
:105A40001B1F9A5CB1FBF2F1016130BD234A0029B2
:105A5000516901D0014300E08143516170471F4A01
:105A60000029916901D0014300E0814391617047B1
:105A70001A4A0029D16901D0014300E08143D16174
:105A80007047164A0029D16801D0014300E08143E4
:105A9000D1607047114A0029116901D0014300E02B
:105AA00081431161704711494039086070470E49C0
:105AB000C86470470949C87170470848416A41F095
:105AC000807141627047054A0146002092680A428F
:105AD00000D00120704701498872704700100240D1
